:020000040800F2
:100000008805002045010008ED270008151E00089E
:10001000E9270008A5150008AD3E00080000000013
:10002000000000000000000000000000CD2E0008CD
:100030009B1800080000000079290008A931000879
:100040005F0100085F0100085F0100085F01000810
:100050005F0100085F0100085F0100085F01000800
:100060005F0100085F0100085F0100085F010008F0
:100070005F0100085F0100085F0100085F010008E0
:100080005F0100085F0100085F0100085F010008D0
:100090005F0100085F0100085F010008B118000857
:1000A0005F0100085F0100085F0100085F010008B0
:1000B0005F0100085F0100085F0100085F010008A0
:1000C0005F0100085F0100085F0100085F01000890
:1000D0005F0100085F0100085F0100085F01000880
:1000E0005F0100085F0100085F0100085F01000870
:1000F0005F0100085F0100085F0100085F01000860
:100100005F0100085F0100085F0100085F0100084F
:100110005F0100085F0100085F0100085F0100083F
:100120005F0100085F0100085F0100085F0100082F
:10013000DFF80CD000F03AFB00480047C549000842
:10014000880500200648804706480047FEE7FEE78E
:10015000FEE7FEE7FEE7FEE7FEE7FEE7FEE7FEE777
:10016000AD3100083101000840EA01039B0703D0CC
:1001700009E008C9121F08C0042AFAD203E011F8E6
:10018000013B00F8013B521EF9D270472DE9FE4FAA
:10019000804681EA0300C00F0C46009021F0004128
:1001A00023F00045B8EB0200A94105D240462146A4
:1001B00090461C460B46024623F00040104347D0B1
:1001C000270DC7F30A00C3F30A510290401A0190A9
:1001D00040286BDAC3F3130040F4801B009892466A
:1001E00020B10023D2EB030A63EB0B0B01985946B5
:1001F000C0F14002504600F0DDF906460D4650467B
:100200005946019A00F0E5F910EB0800614100241D
:1002100087EA115284EAE7731A4340D0009A62B326
:10022000019A012A4FEA075215DC001B61EB02011B
:100230004FF0004202EA0752CDE90042001C41F5AE
:10024000801132462B4600F01CFA03B0BDE8F08F57
:1002500040462146F9E7001B61EB0201001C41F515
:10026000801300185B412018A2F5001747EB03012B
:1002700040EAD570B6196D4111E06D084FEA3606B7
:1002800045EAC0754FEA0752001B61EB0201001CF2
:1002900041F5801149084FEA3000001951413246BA
:1002A0002B4603B0BDE8F04F00F0DCB90098012206
:1002B00040000023D0EB020263EBE073009821467C
:1002C0004FEAE074B8EB000061EB0401E9E783F06A
:1002D00000435BE781F0004158E72DE9FE4F81EADA
:1002E000030404F0004421F0004100944FF0000B9F
:1002F00023F0004350EA01045ED052EA03045BD0CD
:10030000C3F30A54C1F30A552C44A4F2F334019404
:10031000A0FB0254C1F3130141F48011C3F3130392
:1003200043F4801301FB024400FB034E840A970A46
:1003300044EA815447EA8357A4FB076802958D0A73
:1003400005FB07854FEA932C04FB0C542705029DFF
:100350004FEA065847EA1637B5EB08056EEB070C6F
:10036000870E920E47EA811742EA8312A7FB020129
:10037000B6EB0B0164EB00042B0D43EA0C335E1863
:1003800044EB1C50DA465146E7FB0201C5F3130467
:100390004FEA0B3343EA14534FEA0432019C43EA19
:1003A0000603A4F10C040294009CCDE900B400F013
:1003B00068F903B0BDE8F08F00200146F9E72DE9A8
:1003C000F04D81EA030404F0004B21F0004514468F
:1003D0004FF0000A23F0004150EA050220D054EA11
:1003E00001021DD0C5F30A570246C5F31303C1F33A
:1003F0001300C1F30A5640F4801543F48013A7EBB1
:100400000608101BD64608F2FD3873EB050002D330
:1004100008F1010801E092185B41B8F1000F03DA1E
:1004200000200146BDE8F08D00204FF48011064603
:1004300084460EE0171B73EB050705D3121B63EB15
:10044000050306434CEA010C49084FEA30009218B4
:100450005B4150EA0107EDD152EA030012D082EA73
:10046000040083EA0501084305D0101BAB4106D206
:100470000122002306E000224FF0004302E06FF06B
:10048000010253101AEB06004CEB085110EB0A0066
:1004900041EB0B01BDE8F04D00F0E4B896230022DB
:1004A000114600F0B1B80EB5C10F80EAE070084403
:1004B000CA07002140F233438DE80E000A460B467E
:1004C00000F0DFF803B000BD00F0004230F0004063
:1004D0000AD0C10D01F56071C0F3160042EA015166
:1004E000C20840071143704700200146704701F0E1
:1004F000004330B421F0004150EA010206D00A0D59
:10050000A2F56072C1F31301002A02DC30BC0020A6
:100510007047440F44EAC104C100E01830BC00EB4E
:10052000C25000F068B830B50B46014600202022CA
:10053000012409E021FA02F59D4205D303FA02F5F0
:10054000491B04FA02F52844151EA2F10102F1DC50
:1005500030BD2DE9F05F0546002092469B46884657
:100560000646814640241BE028464146474622462F
:1005700000F02EF953465A46C01A914110D3114645
:100580001846224600F016F82D1A67EB01084F4670
:1005900022460120002100F00DF817EB00094E4122
:1005A000201EA4F10104DFDC484631462A464346BA
:1005B000BDE8F09F202A04DB203A00FA02F1002077
:1005C00070479140C2F1200320FA03F31943904091
:1005D0007047202A06DBCB17203A41FA02F043EAA3
:1005E000E07306E041FA02F3D040C2F120029140EC
:1005F0000843194670470029A8BF7047401C4900AE
:1006000008BF20F00100704710B4B0FA80FC00FA77
:100610000CF050EA010404BF10BC704749B1CCF1A2
:10062000200421FA04F411FA0CF118BF012121432E
:100630000843A3EB0C01CB1D4FEA00614FEA1020E9
:1006400042BF002010BC704700EBC350104400298B
:10065000A4BF10BC7047401C490008BF20F0010037
:1006600010BC704710B5141E73F1000408DA401C6A
:1006700041F1000192185B411A4301D120F00100C1
:1006800010BD2DE9F04D92469B4611B1B1FA81F2B1
:1006900002E0B0FA80F220329046FFF78BFF04466A
:1006A0000F4640EA0A0041EA0B0153465A46084306
:1006B00013D0114653EA010019D0C8F14002504648
:1006C00000F086F805460E46504659464246FFF76A
:1006D00071FF084305D0012004E020463946BDE8FB
:1006E000F08D0020054346EAE0762C4337430A9814
:1006F0006305E40AA0EB08000022FD0A44EA47541F
:100700000A3002D500200146E9E7010510196941C8
:10071000DDE9084500196941BDE8F04DA2E770B573
:1007200021F0004303430CD0C1F30A550024D5EB5C
:10073000040564EB0403D617AD1AB34102DB0020B5
:10074000014670BD201841EB025170BDC1F30A5241
:10075000C1F3130140F2FF3341F480119A4202DAEF
:1007600000200146704740F233439A42A2F23342DE
:1007700002DC524200F02CB8FFF71CBF30B5041E5B
:1007800071F1000404DB4FF00044404264EB0101CE
:10079000141E73F1000405DB1C464FF00043524267
:1007A00063EB0403994208BF904230BD064C074DED
:1007B00006E0E06840F0010394E807009847103431
:1007C000AC42F6D3FFF7B8FCB8580008D858000878
:1007D000202A04DB203A21FA02F00021704721FA96
:1007E00002F3D040C2F120029140084319467047FD
:1007F0002DE9F04D00231A461B1A8A4103DB002025
:100800000146BDE8F08DC1F30A52C1F3130141F472
:1008100080154FF0000BD10702D100186D41521E18
:100820000027044640F2FF11384601EB620A3E46BB
:100830008046024600204FF48011FFF7C9FFC2191D
:100840007141BB1846EB0100B4EB030C75EB000CD7
:1008500004D3E41A65EB000517460E46241908F187
:1008600001006D4180463428E3DDF91946EB0600AE
:10087000091BA84103D24FF0FF32134601E00022CA
:1008800013461BEB070046EB0A51BDE8F04DFFF79E
:10089000E9BE000010B50022002015E0002109E0AB
:1008A00001EB41030A4C04EB430333F810301344CB
:1008B0009AB2491C0329F3DB032392FBF3F3054CA3
:1008C00024F810300022401C0328E7DB10BD000094
:1008D000400100203000002021B1826842F0010276
:1008E000826003E0826822F00102826070470000AB
:1008F00000B591B000208DF843007020ADF84000A5
:1009000010A93E4801F0DEF90121084602F036F850
:100910003B4800F055FE3B4805903B4806900020C0
:100920000790092008900020099080200A9040003C
:100930000B9080000C9020200D9000020E90002063
:100940000F9005A92E4800F0E1FE01212C4800F08F
:100950002BFE0121480202F041F800200090012006
:100960008DF804008DF805004FF4602002900020FF
:10097000039003208DF81000694622484C3800F09F
:1009800065F80523012204211E484C3800F086F842
:100990000523022219461B484C3800F07FF8052336
:1009A0000322062117484C3800F078F80121154839
:1009B0004C3800F02BF8012112484C38FFF78CFF1F
:1009C00010484C3800F0C6F800BF0E484C3800F014
:1009D00032F80028F9D10B484C3800F0CBF800BFB2
:1009E00008484C3800F01DF80028F9D101210548CD
:1009F0004C3800F0B4F811B000BD00000008014010
:100A0000080002404C2401404001002021B18268CE
:100A100042F48072826003E0826822F48072826015
:100A20007047014600208A6802F004020AB10120E2
:100A300000E000207047014600208A6802F00802AA
:100A40000AB1012000E000207047000030B50246E6
:100A50000020002350680F4C20400D790C6844EAB8
:100A600005242043506090680B4C2040D1E902548B
:100A70002C434D7944EA450420439060D06A20F429
:100A800070000C7C641EE4B2234340EA0350D06241
:100A900030BD0000FFFEF0FFFDF7F1FFF0B50446AA
:100AA0000D4600200021092D11DDE068A5F10A06A0
:100AB00006EB4607072606FA07F18843A5F10A0662
:100AC00006EB460603FA06F10843E0600CE02069F5
:100AD00005EB4507072606FA07F1884305EB4506AF
:100AE00003FA06F108432061072A0FDA606B561EED
:100AF00006EB86071F2606FA07F18843561E06EB0B
:100B0000860605FA06F10843606322E00D2A0FDA33
:100B1000206BD61F06EB86071F2606FA07F18843CF
:100B2000D61F06EB860605FA06F10843206310E09F
:100B3000E06AA2F10D0606EB86071F2606FA07F10A
:100B40008843A2F10D0606EB860605FA06F1084376
:100B5000E062F0BD816841F008018160704721B119
:100B6000826842F4A002826003E0826822F4A0025C
:100B700082607047816841F0040181607047000025
:100B8000FEB5FB480078052872D1FA4800780028A5
:100B90003ED00020F7490870F7A101F0EDFFF948B9
:100BA0000078012807D1F8A1002001F0E5FF01201D
:100BB00001F042FD29E0F3480078022807D1F4A1B2
:100BC000002001F0D9FF002001F036FD1DE0ED48C6
:100BD0000078032807D1F0A1002001F0CDFF00200C
:100BE00001F02AFD11E0E7480078042807D1ECA1C4
:100BF000002001F0C1FF002001F01EFD05E00120F2
:100C0000E0490870DB490870FEBDE74800F046FE89
:100C1000E6480078002875D12021E54801F0DDF88C
:100C200078B9D8480078042805DAD6480078401CFE
:100C3000D449087002E00120D24908700120CD4952
:100C40000870D0480078012836D1DA48008800F4CE
:100C50000060B0F5006F01D1012400E00024D64807
:100C6000008800F40060B0F5006F02D1012501E0BA
:100C70009CE00025D148008800F40060B0F5006FCA
:100C800001D1012600E000260EB14F2000E05820DF
:100C900000900DB14F2000E0582003460CB14F20CA
:100CA00000E058200246C6A101A803F047F901A9B7
:100CB000002001F061FF00BFB2480078022825D172
:100CC000C2A1002001F058FF4FF48071B84801F034
:100CD00084F8D8B94FF40071B54801F07EF8A8B98E
:100CE000B448BD4908600120B0490870BA4800689E
:100CF000008800F40060B0F5006F04D10120B7490E
:100D0000087003E057E00020B44908709D4800785F
:100D1000032824D1ADA1002001F02EFF4FF48071F3
:100D2000A34801F05AF8D0B94FF40071A04801F07F
:100D300054F8A0B9A048A849086001209B49087050
:100D4000A5480068008800F40060B0F5006F03D18A
:100D50000120A249087002E00020A04908708948DB
:100D60000078042822D199A1002001F005FF4FF45A
:100D700080718F4801F031F80028F3D14FF40071F1
:100D80008B4801F02AF80028ECD18C489249086081
:100D900001208649087090480068008800F40060CF
:100DA000B0F5006F03D101208C4908706AE1002082
:100DB0008A49087066E18A480078012856D10020E7
:100DC0008749087087480078A0B98448007840B106
:100DD00081480068008840F400607F490968088005
:100DE00008E07D48006800884FF2FF7108407A49AA
:100DF000096808807B48007802280DDD7648006885
:100E0000008878490978C1F1090277490978914049
:100E1000084371490968088072480078401C71498C
:100E2000087008460078022815DD6B4800680088C5
:100E30000978C91E40220A4110406A490978C91E32
:100E400040220A41904203D101206749087002E024
:100E500000206549087060480068028863A16748FF
:100E600003F06CF8654802F00FFF0BE15D48007875
:100E7000D8B95A48007808B161A000E062A00246E3
:100E800063A101A803F05AF801A9002001F074FE43
:100E9000524861490860012001F0CEFB00205F4903
:100EA000087001205E490870ECE04E480078012887
:100EB00019D14948006882785AA101A803F03EF888
:100EC00001A9002001F058FE43480068801C5249E7
:100ED0000860012001F0B0FB002050490870172085
:100EE0004F490870CEE03F480078022819D13A48AF
:100EF0000068C2784EA101A803F020F801A90020E3
:100F000001F03AFE34480068C01C434908600120E3
:100F100001F092FB0020414908703B2040490870D5
:100F2000B0E0304800780A2821DA2F48007808B16C
:100F300033A000E034A003462A480078C01E3F4991
:100F400051F820203EA101A802F0F8FF01A90020DD
:100F500001F012FE244830490860012001F06CFBCA
:100F600000202E49087001202D4908708AE06BE0AE
:100F700036000020380000202020202020202020C3
:100F80000000000037000020414C41524D0000009D
:100F9000414C41524D310000414C41524D32000014
:100FA000414C41524D330000404B4C003900002071
:100FB000000C01405C000020600000206400002064
:100FC0003125632032256320332563002B2D544FB8
:100FD0002053455400000000A4000020A800002079
:100FE0003A000020A0000020A90000200D0A435470
:100FF0004C3A307825780D0A00000000520100209C
:101000004F4E2020000000004F4646200000000008
:1010100043544C3A257300003C000020400000205F
:1010200041000020484F55523A25303264200000DC
:101030004D494E3A2530326420200000AC0000209B
:1010400025733A25730000000F4800780A280DD157
:101050000E48006800880C490978C1F109020C4962
:101060000978914008430949096808800020094926
:101070000870054908700849087001200749087080
:1010800002F038F800BFBFE5A0000020A400002057
:10109000A9000020390000203A000020370000207D
:1010A00070B500243AE014B93F4D012608E0012C48
:1010B00002D13E4D022603E0022C01D13C4D032615
:1010C000288800F40060B0F5006F25D13948007918
:1010D000A978884220D137484078E97888421BD1E6
:1010E00034480078032817DA33A002F0CDFD2888B1
:1010F00030494979C1F1050101228A4010402D494A
:101100004979C1F1050101228A40904204D12EA003
:1011100002F0BAFD30480670601CC4B2032CC2DB7A
:101120002D48007800283DD02B4802782BA12E486E
:1011300002F004FF2C49002001F01EFD002421E0F4
:1011400020212A4800F049FE58B14FF48071274809
:1011500000F043FE28B14FF40071244800F03DFE3A
:1011600010B900201C490870012000F04FF82048F9
:1011700000F094FB002000F049F81D4800F08EFBC1
:10118000601CC4B2052CDBDB1A480068401C1949FE
:10119000086008460068B0F57A7F03DD002008602B
:1011A0000D49087070BD00005C0000206000002048
:1011B00064000020EA000020414C41524D312121C1
:1011C00021210D0A0D0A0000414C41524D322121CE
:1011D00021210D0A0D0A000047000020414C415218
:1011E0004D2564202000000049000020000C014033
:1011F00040420F005800002001460A1101F00F0381
:1012000002EB820003EB4000C0B2704738B50446E1
:101210004FF40060ADF8000003208DF802005CB1CF
:1012200018208DF8030069460C4800F04BFD0121A1
:101230000B4802F0DFFA0FE00021094802F0DAFA69
:1012400010208DF803006946044800F03BFD4FF480
:101250000061024800F0CAFD38BD000000080140EE
:10126000002C014010B5772000F0E2FD0446204636
:1012700010BD000010B5AA21772001F00BF800B2D4
:1012800022490880AC21772001F004F800B21F4900
:101290004880AE21772000F0FDFF00B21B49888016
:1012A000B021772000F0F6FF1849C880B2217720DE
:1012B00000F0F0FF15490881B421772000F0EAFF23
:1012C00012494881B621772000F0E4FF00B20F49AF
:1012D0008881B821772000F0DDFF00B20B49C8817A
:1012E000BA21772000F0D6FF00B208490882BC215D
:1012F000772000F0CFFF00B204494882BE2177205A
:1013000000F0C8FF00B20149888210BDF40000203F
:1013100010B586B000240E4800F0C0FA3422F42143
:10132000772001F0BFF80A4800F0B8FAF6217720DC
:1013300000F0B0FF044600BF224606A101A802F05B
:10134000FDFD01A802F0A0FC204606B010BD000083
:1013500020A1070055503A256C640D0A00000000DA
:1013600010B586B000240F4800F098FA2E22F42120
:10137000772001F097F80B4800F090FA4FF4FA70DC
:1013800000F08CFAF621772000F084FF0446224614
:1013900005A101A802F0D2FD01A802F075FC2046CB
:1013A00006B010BD20A1070055543A256C640D0A03
:1013B000000000002DE9FC5FFFF7D2FF7149886152
:1013C000FFF7A6FF6F49C86189696E4A5289891A79
:1013D0006C4A128901FB02F0C11700EB5141C9139D
:1013E000684A11621046006A1146B1F914100844A7
:1013F0001146B1F91210C90291FBF0F01146486292
:101400000846006A496A084411464863496B01F17D
:101410000800FFF748F8064600225B4BFEF7CFFFB7
:101420000446FFF764F8574948640846406BA0F546
:101430007A6088630846806B40430013B1F90E1050
:101440004843C0124F4908620846B0F90200896B50
:101450004843C0124B4948620846006A496A08443A
:10146000484988628A6AB1F9001002EB8101881C40
:10147000C11700EB91718910424AD1621046B0F950
:1014800004001146896B4843401311460862084620
:10149000806B40430013B1F90C104843001411460F
:1014A00048620846006A496A0844801C8010114658
:1014B00088620846C088896A01F500414843C00B2C
:1014C000114608630846C069C96A401A4CF2503197
:1014D00048431146C8630846C06BB0F1004F08D2BC
:1014E0000846C06B4000096BB0FBF1F01146086480
:1014F00008E02448C06B2349096BB0FBF1F04000C1
:10150000204908641F48006C001240431D490862CE
:101510000846006A40F6DE31484300141949086263
:101520000846006C194948430014164948620846A9
:10153000006A496A084400F6CF601249096C01EB61
:10154000201010490864086CFEF7ADFF0022104B14
:10155000CDE90001FEF733FF80460E4A0E4B03F043
:101560009FFB824600220D4BFEF7B4FE064600228A
:101570000B4BFEF7B2FE0446FEF7B9FF0149886443
:10158000BDE8FC9FF40000200000304043E3FFFF73
:10159000D0BCF8406C45D9CC955BC83F0000F03F0B
:1015A00040A5E54000BFFEE721B1026842F001021C
:1015B000026004E002684FF6FE731A400260704752
:1015C00001684FF6FE721140016000210160416028
:1015D0008160C1604B49884208D14A49083949684D
:1015E00041F00F01474A083A51608AE045491431F9
:1015F000884208D143490839496841F0F001414A1D
:10160000083A51607DE03F492831884208D13D4980
:101610000839496841F470613A4A083A516070E00B
:1016200038493C31884208D136490839496841F483
:101630007041344A083A516063E03249503188427F
:1016400008D130490839496841F470212D4A083AD7
:10165000516056E02B496431884208D12949083944
:10166000496841F47001274A083A516049E0254928
:101670007831884208D123490839496841F07061BE
:10168000204A083A51603CE01F49884206D1011FB8
:10169000096841F00F01021F116032E01A4914314C
:1016A000884208D11849091F096841F0F001164A1B
:1016B000121F116025E014492831884208D11249CF
:1016C000091F096841F470610F4A121F116018E088
:1016D0000D493C31884208D10B49091F096841F482
:1016E0007041094A121F11600BE0074950318842CE
:1016F00007D10549091F096841F47021024A121FE8
:1017000011607047080002400804024010B5002232
:10171000026847F6F0739A430C6A8B6823430C699E
:1017200023434C6923438C692343CC6923434C6A8C
:1017300023438C6A23431A430260CB6843600B68DF
:1017400083604B68C36010BD10B5682000F070FB6B
:101750000446204610BD70B504460021682000F004
:10176000C3FC0646FFF748FD20700121682000F009
:10177000BBFC0646FFF740FD60700221682000F0C8
:10178000B3FC0546C5F38010A070A07840B105F009
:101790001F00FFF731FD2071C5F34110E07004E038
:1017A00005F03F00FFF728FD20710321682000F0BD
:1017B0009BFC00F0070060710421682000F094FC9D
:1017C0000646FFF719FDA0710521682000F08CFC8A
:1017D000054605F08000207205F01F00FFF70CFDA4
:1017E000E0710621682000F07FFC0646FFF704FD4B
:1017F000607270BD70B50446207800F0FBFA0546B3
:101800002A460021682000F04DFE607800F0F2FAD0
:1018100005462A460121682000F044FEA07878B1F0
:10182000207900F0E7FAA1788901E27801EB421112
:101830000844C5B22A460221682000F033FE0BE0BE
:10184000207900F0D7FAA17800EB8110C5B22A46C2
:101850000221682000F026FE62790321682000F052
:1018600021FEA07900F0C6FA05462A460421682028
:1018700000F018FEE07900F0BDFA05462A46052181
:10188000682000F00FFE607A00F0B4FA05462A46A0
:101890000621682000F006FE70BD704700E0401E83
:1018A0000028FCD1704700E0401E0028FCD17047A2
:1018B00010B5002000F0C0FE42480078A0B34FF4FD
:1018C0000071414800F089FA68B940480068007822
:1018D0003F490978884206DD3C4800680078401E90
:1018E0003A49096808704FF48071374800F075FA7A
:1018F00068B936480068007836490978884206DABF
:10190000324800680078401C30490968087020217E
:101910002D4800F062FA002842D101202E490870BB
:10192000002000F089FE3BE0FFE74FF400712648FD
:1019300000F053FA60B929480078012804DD2748EF
:101940000078401E2549087001202549087027E0CD
:101950004FF480711C4800F040FA60B91F480078CD
:10196000052804DA1D480078401C1C490870012035
:101970001B49087014E02021134800F02EFA78B9B2
:1019800018480078042805DA16480078401C1549E4
:10199000087002E001201349087001201049087006
:1019A00011A002F071F9202000F026F84FF48070A9
:1019B00000F022F84FF4007000F01EF8012000F053
:1019C0003BFE10BD39000020000C01403C0000200F
:1019D00040000020410000203A0000203600002096
:1019E0003800002037000020496E746572727570EF
:1019F00074210D0A000000000149086070470000D2
:101A000014040140002123498279002A3AD00A4671
:101A1000126803689A430B461A600A1D126803682D
:101A20009A430B1D1A60027911440A6803681A432D
:101A30000A60184A0832126803689A43154B083343
:101A40001A601A1D126803689A43124B0C331A600D
:101A50004279102A0ED11A1F126803681A430D4BDF
:101A600008331A601A1D126803681A43094B0C33B5
:101A70001A600DE00749427911440A6803681A4365
:101A80000A6005E0027911440A6803689A430A6013
:101A900070470000000401400149C8607047000021
:101AA0000020024010B5044600F078F82520FFF72A
:101AB000F3FF204600F004F800F042F810BD0000EB
:101AC00030B5044604254FF4302000F073F8054685
:101AD000042D17D10C48006940F002000A49086142
:101AE00008464461006940F0400008614FF430202E
:101AF00000F060F805460448006941F6FD710840B1
:101B000001490861284630BD0020024004200B49ED
:101B1000C96801F0010109B101200EE00749C96857
:101B200001F0040109B1022007E00449C96801F08D
:101B3000100109B1032000E004207047002002409A
:101B40000348006940F080000149086170470000C7
:101B50000020024070B504460D460426F00200F055
:101B600029F80646042E11D10948006940F0010009
:101B7000074908612580F00200F01CF80646044879
:101B8000006941F6FE71084001490861304670BDA8
:101B900000200240014608887047000002480349BF
:101BA00048600348486070472301674500200240B1
:101BB000AB89EFCD00B502460423FFF7A7FF03462C
:101BC00003E0FFF7A3FF0346521E012B01D1002AB9
:101BD000F7D102B90523184600BD000038B5044608
:101BE0000D46FFF7DBFF2520FFF756FF294620466D
:101BF000FFF7B0FF0090FFF7A3FF9DF80000042857
:101C000003D004A002F040F802E007A002F03CF884
:101C100038BD0000466C6173682057726974652096
:101C20006661696C0D0A0000466C6173682057722A
:101C3000697465204F4B0D0A0000000008B50121B2
:101C4000042000F0CBFE8020ADF8000003208DF8CA
:101C5000020010208DF803006946094800F032F8B0
:101C60004FF40060ADF8000003208DF80200102052
:101C70008DF803006946024800F024F808BD000012
:101C80000008014030B500228B071C0F0F2303FA18
:101C900004F20B4B8C1053F824309343084C8D10F6
:101CA00044F8253023468C1053F824308C07240F39
:101CB00000FA04F42343024C8D1044F8253030BD63
:101CC000080001402DE9F0410246002500260020D1
:101CD00000230024002791F803C00CF00F0591F8B1
:101CE00003C00CF0100CBCF1000F03D091F802C03F
:101CF0004CEA050591F800C0BCF1000F31D0146822
:101D000000202BE04FF0010C0CFA00F3B1F800C0FA
:101D10000CEA03069E4220D183004FF00F0C0CFA10
:101D200003F7BC4305FA03FC4CEA040491F803C032
:101D3000BCF1280F06D14FF0010C0CFA00FCC2F8E0
:101D400014C00AE091F803C0BCF1480F05D14FF070
:101D5000010C0CFA00FCC2F810C0401C0828D1D3BA
:101D60001460B1F800C0BCF1FF0F34DD54680020EE
:101D70002EE000F1080C4FF0010808FA0CF3B1F85E
:101D800000C00CEA03069E4221D183004FF00F0CE5
:101D90000CFA03F7BC4305FA03FC4CEA040491F87F
:101DA00003C0BCF1280F05D100F1080C08FA0CF8AB
:101DB000C2F8148091F803C0BCF1480F07D100F1BC
:101DC000080C4FF0010808FA0CF8C2F81080401C0B
:101DD0000828CED35460BDE8F08102460020936805
:101DE0000B400BB1012000E00020704741617047BB
:101DF0000161704710B501460A2091FBF0F0C2B2B4
:101E00000A2091FBF0F400FB1410C3B203EB0210A4
:101E1000C0B210BD00BFFEE721B1028842F480626B
:101E2000028004E002884FF6FF331A4002807047B8
:101E300070B504460121204800F065F801211E48D4
:101E4000FFF7EAFF01211C4800F0C0F84FF47A7553
:101E500009E0281EA5F101018DB204D117A001F0FF
:101E600013FFFF2070BD1849134800F037F8002811
:101E7000EFD06006010E00220F4800F007FB4FF480
:101E80007A7509E0281EA5F101018DB204D10FA0D9
:101E900001F0FAFEFE20E5E70F49074800F01EF8C2
:101EA0000028EFD00121044800F09CF800210248EE
:101EB00000F029F80020D5E700540040434556358E
:101EC000204661696C00000001000300434556365E
:101ED000204661696C0000008200070070B5024670
:101EE0000024002500230020958A138B1B0445EA5B
:101EF000030626F07F4404EA01068E4201D1012048
:101F000000E0002070BD21B1028842F00102028091
:101F100004E002884FF6FE731A400280704700000A
:101F200000B585B00121082000F058FD01214805C9
:101F300000F034FDC020ADF8100003208DF8120031
:101F40001C208DF8130004A90F48FFF7BBFE0F48B3
:101F500000F020F80020ADF804004BF6FF70ADF85B
:101F600006000020ADF808004FF48060ADF80A00CC
:101F70000001ADF80C00064800906946034800F0E7
:101F80003DF805B000BD0000000C014000540040C9
:101F9000A086010010B504460B48844209D10121F6
:101FA000480500F00BFD00214FF4001000F006FD85
:101FB00008E00121880500F001FD00214FF48000B8
:101FC00000F0FCFC10BD00000054004021B102886C
:101FD00042F48072028004E002884FF6FF631A40E8
:101FE0000280704721B1028842F40072028004E04E
:101FF00002884FF6FF531A40028070472DE9F043E4
:1020000085B004460D460026B1460427DFF8CC8093
:10201000A6884FF6C0700640684600F009FDDDF85E
:1020200008802F48B8FBF0F01FFA80F946EA09064D
:10203000A68020884FF6FE7108402080002629499E
:10204000286888420CD828684000B8FBF0F087B2B6
:10205000042F00DA04273E4309F10100208427E021
:10206000E8884BF6FF71884206D1286800EB4000F3
:10207000B8FBF0F087B209E0286800EBC00101EB83
:102080000010B8FBF0F087B247F48047C7F30B00AD
:1020900008B947F0010747F4004006434FF4967033
:1020A00009FB00F04FF47A7190FBF1F0401C2084A2
:1020B000A683208840F00100208026884FF6F53066
:1020C0000640A8886989084306432680A88929898B
:1020D0000843208105B0BDE8F083000000127A00BB
:1020E00040420F00A08601002DE9F04105460E4652
:1020F00001215648FFF707FF01215448FFF766FF0B
:102100004FF47A740AE0201EA4F101018CB205D1CB
:102110004FA001F0B9FDFE20BDE8F0814F494B48CA
:10212000FFF7DCFE0028EED06806010E00224748CB
:1021300000F0ACF94FF47A7409E0201EA4F101011B
:102140008CB204D146A001F09FFDFE20E4E7474990
:102150003E48FFF7C3FE0028EFD001213B48FFF7C0
:10216000D2FE3146394800F09AF94FF47A7409E00A
:10217000201EA4F101018CB204D13DA001F084FD28
:10218000FE20C9E73949891C3048FFF7A7FE01281E
:10219000EED101212D48FFF719FF4FF47A7409E0C1
:1021A000201EA4F101018CB204D129A001F06CFD24
:1021B000FE20B1E729492548FFF790FE0028EFD01F
:1021C000012000EB4500C1B20122204800F05EF979
:1021D0004FF47A7409E0201EA4F101018CB204D1FD
:1021E00026A001F051FDFE2096E71C49491C174826
:1021F000FFF774FE0028EED000211448FFF70CFE14
:1022000001211248FFF7EEFE4FF47A7409E0201E18
:10221000A4F101018CB204D11BA001F035FDFE2018
:102220007AE70E493F310948FFF758FE0028EED003
:10223000064800F027F9074601210448FFF7ECFDA6
:1022400000210248FFF75FFE384665E70054004072
:1022500052455635204661696C00000001000300BC
:1022600052455636204661696C0000008200070026
:1022700052455638204661696C000000524556367A
:102280002E32204661696C005245563720466169FE
:102290006C0000002DE9F0470546894641F288347C
:1022A00001216548FFF72FFE01216348FFF78EFEED
:1022B00000BF0AE0201EA4F101018CB205D15FA08D
:1022C00001F0E2FCFE20BDE8F0875F495A48FFF7C5
:1022D00005FE0028EED06806010E0022564800F0E8
:1022E000D5F84FF47A7409E0201EA4F101018CB2F4
:1022F00004D156A001F0C8FCFE20E4E756494E4840
:10230000FFF7ECFD0028EFD001214B48FFF7FBFD64
:102310004946494800F0C3F84FF47A7409E0201E9A
:10232000A4F101018CB204D14CA001F0ADFCFE205F
:10233000C9E74949891C4048FFF7D0FD0128EED183
:1023400001213D48FFF742FE4FF47A7409E0201E58
:10235000A4F101018CB204D138A001F095FCFE205B
:10236000B1E739493448FFF7B9FD0028EFD0012023
:1023700000EB4500C1B201222F4800F087F801218F
:102380002D48FFF749FD4FF47A7409E0201EA4F1AF
:1023900001018CB204D134A001F076FCFE2092E75A
:1023A0002949491C2448FFF799FD0028EED04CF23A
:1023B000503409E0201EA4F101018CB204D12DA0FB
:1023C00001F062FCFE207EE71F493F311A48FFF70B
:1023D00085FD0028EED0184800F054F8074601218A
:1023E0001548FFF7FFFD00211348FFF715FD41F2E7
:1023F000883409E0201EA4F101018CB204D11DA093
:1024000001F042FCFE205EE70F493F310A48FFF72A
:1024100065FD0028EED0084800F034F88046002121
:102420000548FFF770FD08EB072006B201210248BE
:10243000FFF7F2FCB0B246E7005400405245563573
:10244000204661696C0000000100030052455636C9
:10245000204661696C000000820007005245563832
:10246000204661696C000000524556362E322046E7
:1024700061696C0054696D656F7574204661696CA3
:10248000000000000146088AC0B2704712B141F056
:10249000010102E04FF6FE7319400182704701828C
:1024A000704700002DE9F04105460F461646012110
:1024B0003648FFF728FD01213448FFF7ADFC012124
:1024C0003248FFF783FD4FF47A7409E0201EA4F12F
:1024D00001018CB204D12EA001F0D6FBBDE8F08141
:1024E0002E492A48FFF7FAFC0028EFD06806010EB3
:1024F00000222648FFF7CAFF4FF47A7408E0201E36
:10250000A4F101018CB203D125A001F0BDFBE5E7E8
:1025100026491E48FFF7E2FC0028F0D039461B4848
:10252000FFF7BDFF4FF47A7408E0201EA4F101010B
:102530008CB203D11EA001F0A7FBCFE71B49891C79
:102540001248FFF7CBFC0028EFD031460F48FFF7C9
:10255000A6FF4FF47A7408E0201EA4F101018CB2AA
:1025600003D116A001F090FBB8E71049891C074879
:10257000FFF7B4FC0028EFD001210448FFF732FD3B
:1025800000210248FFF7BFFC00BFA7E7005400404E
:1025900057455635204661696C0000000100030074
:1025A00057455636204661696C00000082000700DE
:1025B00057455638204661696C000000574556382B
:1025C0005F32204661696C0070B505460C4645F2E5
:1025D000555000F02BF8284600F01CF8204600F07B
:1025E0001FF800F00FF800F001F870BD4CF6CC4079
:1025F00001490860704700000030004010B500F04D
:1026000001F810BD4AF6AA20014908607047000091
:102610000030004001494860704700000030004031
:10262000014988607047000000300040014908609F
:10263000704700000030004038B5044617208DF880
:10264000000001208DF801008DF8020014B18DF812
:10265000030002E000208DF80300684600F0C8F88F
:1026600038BD1CB505210120FFF70CFB2020009090
:1026700000208DF804000C208DF8050001208DF855
:1026800006006846FFF7BEF908210120FFF7FAFAB5
:102690004FF48070009000208DF804000C208DF81D
:1026A000050001208DF806006846FFF7ABF92020F1
:1026B000FFF7A2F94FF48070FFF79EF94FF4007016
:1026C000FFF79AF909210120FFF7DCFA4FF40070B7
:1026D000009000208DF804000C208DF805000120EA
:1026E0008DF806006846FFF78DF91CBD08B501217D
:1026F000092000F073F94FF44870ADF80000032092
:102700008DF8020048208DF8030069460148FFF764
:10271000D9FA08BD000C014038B504468020ADF858
:10272000000003208DF802005CB118208DF8030032
:1027300069460C48FFF7C6FA01210B4801F05AF828
:102740000EE00021084801F055F810208DF8030034
:1027500069460448FFF7B6FA80210248FFF746FBB6
:1027600038BD0000000801400004004000B5002012
:1027700015490861C8601420486100208861C8615B
:102780000846006840F001000860084640680F49AC
:1027900008400D494860084600680D4908400A494C
:1027A00008600846006820F48020086008464068F9
:1027B00020F4FE0048600020886000214FF0006097
:1027C00000F008F800BD0000001002400000FFF813
:1027D000FFFFF6FE024A0A400243024B1A607047AE
:1027E00080FFFF1F08ED00E000BFFEE7704700001C
:1027F00070B5002100230F22C47804B3154C24685F
:1028000004F4E064C4F5E064210AC1F10403CA40A1
:10281000447804FA03F184781440214309010E4CF2
:102820000678A155047804F01F050124AC40057812
:102830006D11AD0005F1E025C5F8004109E004780F
:1028400004F01F050124AC40044D0678761145F8CC
:10285000264070BD0CED00E000E400E080E100E007
:102860002DE9FC413048007803285BD1FEF7FAFCE3
:1028700010B92EA001F008FAFEF7FCFCFEF79AFD55
:102880002C48007820B300202A4908702AA100F0C3
:1028900073F92C480078012807D12BA1002000F003
:1028A0006BF90120FFF7C8FE12E0264800780228E5
:1028B00007D128A1002000F05FF90120FFF7BCFE3E
:1028C00006E001201F4908701A490870BDE8FC8124
:1028D0002248FEF7E3FF1B480078012809D1204871
:1028E00020A1026C684601F029FB6946002000F037
:1028F00043F914480078022813D11949486CFDF7B0
:10290000E3FD06460022194BFDF759FD0446224619
:102910000B4617A1684601F011FB6946002000F044
:102920002BF900BF00BFD1E7360000204F4B0D0A46
:10293000000000003800002020202020202020203F
:1029400000000000370000205052455353555245B7
:102950000000000054454D5000000000404B4C006A
:10296000F40000202530366C6470610000002440C3
:10297000252E3266430000007047000029B1064A48
:1029800052690243044B5A6104E0034A526982438C
:10299000014B5A61704700000010024029B1064AFD
:1029A000D2690243044BDA6104E0034AD2698243EC
:1029B000014BDA61704700000010024029B1064A5D
:1029C00012690243044B1A6104E0034A126982430C
:1029D000014B1A61704700000010024029B1064AFD
:1029E00092690243044B9A6104E0034A926982436C
:1029F000014B9A61704700000010024029B1064A5D
:102A0000D2680243044BDA6004E0034AD26882438E
:102A1000014BDA6070470000001002400348406A32
:102A200040F0807001494862704700000010024089
:102A300030B500210022002400232D4D6D6805F0E3
:102A40000C0121B1042905D0082923D105E0294D25
:102A5000056022E0274D05601FE0254D6D6805F4F7
:102A60007012234D6D6805F48034022505EB924207
:102A70001CB9214D554305600BE01D4D6D6805F4F3
:102A800000351DB11C4D5543056002E0194D5543FD
:102A9000056002E0174D056000BF00BF144D6D6872
:102AA00005F0F0010909154D6B5C0568DD404560D6
:102AB0000F4D6D6805F4E061090A104D6B5C4568C7
:102AC000DD4085600A4D6D6805F46051C90A0B4D03
:102AD0006B5C4568DD40C560054D6D6805F440419F
:102AE000890B074D6B5CC568B5FBF3F5056130BD1F
:102AF0000010024000127A0000093D00680000202A
:102B00007800002010B501460022002300204A1161
:102B1000012A02D1094C236806E0022A02D1074C9F
:102B2000236A01E0054C636A01F01F02012494400E
:102B30001C400CB1012000E0002010BD001002403C
:102B400010B504464FF400410A48FFF74FF9E4205E
:102B500002F0ECFD2820FEF7A6FE204602F0E6FD7E
:102B60004FF400410348FFF743F92820FEF79BFE8E
:102B700010BD0000000C014070B505460C464FF436
:102B800000410C48FFF732F905F12001C8B202F00C
:102B9000CDFD03E0207802F0C9FD641C20780028F8
:102BA000F8D14FF400410348FFF722F900F004F890
:102BB00070BD0000000C014010B54FF40041064804
:102BC000FFF714F9E82002F0B1FD4FF4004102488C
:102BD000FFF70EF910BD0000000C01401CB56D4858
:102BE000007804287DD16C480078002832D000207D
:102BF0006949087069A1FFF7BFFF6B480078012899
:102C000007D16AA10020FFF7B7FF0120FFF714FDED
:102C10001DE065480078022807D166A10020FFF773
:102C2000ABFF0020FFF708FD11E05F4800780328A4
:102C300007D162A10020FFF79FFF0020FFF7FCFCF7
:102C400005E0012058490870534908701CBD5D48D3
:102C5000FEF724FE5C480078002855D120215B480F
:102C6000FFF7BBF878B950480078042805DA4E48D9
:102C70000078401C4C49087002E001204A49087065
:102C800001204549087048480078012809D150487A
:102C9000027850A1684601F051F969460020FFF71B
:102CA0006BFF41480078022812D14DA10020FFF7A8
:102CB00063FF4FF480714548FFF78FF840B94FF438
:102CC00000714248FFF789F810B901203E490870A9
:102CD0003548007803285BD141A10020FFF74CFF65
:102CE00000E010E04FF480713848FFF776F80028D4
:102CF0004ED14FF400713548FFF76FF8002847D1E7
:102D000001203149087043E027480078022817D194
:102D10003648007820B136A10020FFF72DFF03E0F0
:102D200036A10020FFF728FF30483749086001200E
:102D3000FFF782FC002035490870012034490870F3
:102D400019480078032815D13248027832A1684624
:102D500001F0F4F869460020FFF70EFF2D482A49DC
:102D600008600120FFF768FC322028490870FF2026
:102D7000274908702B480078012809D10020124902
:102D800008702849087001200749087000F0B2F95E
:102D900000BF5BE736000020380000202020202004
:102DA000202020200000000037000020534352451F
:102DB000454E00004155544F425200005345544285
:102DC00052000000404B4C0039000020000C014034
:102DD000460000204252493A25303364200000006A
:102DE0002B2D544F20534554000000004400002078
:102DF0004D3A4175746F2020000000004D3A4D613E
:102E00006E75616C000000003C0000204000002056
:102E10004100002045000020425249533A253033FA
:102E2000640000003A00002010B54020FFF700F8D1
:102E30000446204610BD00002DE9F05FE52140204A
:102E4000FFF728FA82462AF0030A5046FDF726FBD0
:102E50008346FDF739FB0646064A074BFDF73DFA68
:102E600004460022054BFDF732FA8046FDF73FFB92
:102E7000BDE8F09F7644CF7701405F3F00001840E7
:102E80002DE9F05FE3214020FFF704FA82462AF0A3
:102E9000030A5046FDF702FB8346FDF715FB064685
:102EA000064A074BFDF719FA0446064A064BFDF79A
:102EB0000EFA8046FDF71BFBBDE8F09F619FC6DE62
:102EC00007F7653FCDCCCCCCCC6C4740704710B5F4
:102ED00000F002F810BD00000CB500200190009039
:102EE0003348006840F480303149086000BF304802
:102EF000006800F4003000900198401C0190009898
:102F000018B90198B0F5A06FF1D12948006800F414
:102F1000003010B10120009001E0002000900098E6
:102F2000012843D12348006840F01000214908607F
:102F30000846006820F0030008600846006840F07A
:102F4000020008601A48406819494860084640680D
:102F500048600846406840F4806048600846406821
:102F600020F47C1048600846406840F4E81048604F
:102F70000846006840F08070086000BF0C48006898
:102F800000F000700028F9D00948406820F00300E4
:102F9000074948600846406840F00200486000BFAA
:102FA0000348406800F00C000828F9D10CBD00006F
:102FB000001002400020024030B504460025FFF713
:102FC000D5FB1F48006840F480301D49086000BFF1
:102FD0001B480068400C0028FAD04FF48060184964
:102FE0004860A01EC4B20846406840EA8440486079
:102FF0000846406840F4803048601248006840F05D
:103000003200104908600E48006840F080700C499A
:10301000086000BF0A480068400E0028FAD008483F
:10302000406840F002000649486005E004484068F6
:10303000C0F3870505F00305022DF7D130BD000070
:10304000001002400020024010B52348FEF7A2FD08
:103050002249088020481430FEF79CFD0446204990
:103060000C70C4F300201F4908701B48801CFEF739
:1030700091FD1D4908801848001DFEF78BFD1A4977
:1030800088701548801DFEF785FD1749C8701248E5
:103090000830FEF77FFD154908800F480A30FEF71B
:1030A00079FD124988700C480C30FEF773FD0F490A
:1030B000C87009480E30FEF76DFD0D4908800648BE
:1030C0001030FEF767FD0A49887003481230FEF79A
:1030D00061FD0749C87010BD007000084200002063
:1030E00045000020440000205C000020600000201B
:1030F0006400002010B5254804782548007844EA8B
:1031000000242448FEF7CEFC214622481430FEF766
:1031100065FD214801881F48FEF760FD1F480188B2
:103120001C48801CFEF75AFD1C4881781948001D78
:10313000FEF754FD1948C1781648801DFEF74EFD74
:103140001748018813480830FEF748FD1448817875
:1031500010480A30FEF742FD1148C1780D480C3086
:10316000FEF73CFD0F4801880A480E30FEF736FD99
:103170000C48817807481030FEF730FD0948C178C7
:1031800004481230FEF72AFD10BD00004500002063
:103190004400002000700008420000205C00002075
:1031A00060000020640000207047000010B5134844
:1031B000006840F001001149086008464068104965
:1031C00008400E494860084600680E4908400B490F
:1031D00008600846006820F48020086008464068BF
:1031E00020F4FE0048604FF41F008860FFF76FFE78
:1031F0004FF000600449086010BD0000001002405C
:103200000000FFF8FFFFF6FE08ED00E07CB5344853
:103210000078022862D13348007808B332A1002038
:10322000FFF7AAFC33480078012804D132A100201E
:10323000FFF7A2FC0EE02F480078022804D131A14C
:103240000020FFF799FC05E001202A490870254974
:1032500008707CBD0020234908702D48FEF71EFB36
:10326000FFF7E2FD2B4908700846007848BB21486B
:103270000078012810D1FFF703FE0646FDF724F978
:10328000044622460B4624A1684600F057FE6946D4
:103290000020FFF771FC21E01648007802281DD1BC
:1032A000FFF7CAFD0646FDF70FF9044622460B4616
:1032B0001CA1684600F042FE69460020FFF75CFC56
:1032C0000CE014480078FF2804D119A10020FFF772
:1032D00053FC03E019A10020FFF74EFC00BFB8E744
:1032E0003600002038000020202020202020202030
:1032F000000000003700002054454D502648554D31
:103300000000000048756D69646974790000000070
:10331000404B4C007C0000202530322E326643208A
:10332000200000002530322E3266252520200000A6
:103330004932434552524F52000000002044455646
:1033400045525220000000003EB5C14800780128D7
:1033500076D1C048007800283BD00020BD490870D5
:10336000BDA1FFF709FCBF480078012807D1BEA125
:103370000020FFF701FC0120FFF75EF926E0B948C5
:103380000078022804D1BAA10020FFF7F5FB1DE068
:10339000B4480078032807D1B7A10020FFF7ECFB61
:1033A0000020FFF749F911E0AE480078042807D162
:1033B000B2A10020FFF7E0FB0020FFF73DF905E098
:1033C0000120A8490870A34908703EBDAD48FEF72A
:1033D00065FAAD480078A0B92021AC48FEF7FDFCA5
:1033E00078B9A0480078042805DA9E480078401C87
:1033F0009C49087002E001209A4908700120954913
:103400000870FEF7A1F90446002C7DD19E48007893
:1034100000285AD19E48FEF79EF99248007801286C
:103420000FD19B480078009099484378027999A180
:1034300001A800F083FD01A90020FFF79DFBF9E042
:1034400004E18848007802280ED1914880790090E4
:103450008F48C379427A93A101A800F06FFD01A9BA
:103460000020FFF789FBE5E07E480078032812D1B1
:1034700087484079401E8F4A52F820100020FFF7FD
:103480007BFB834842798CA101A800F057FD01A87D
:1034900000F0FAFBCEE0734800780428CFD188A171
:1034A0000020FFF769FB4FF480717848FEF795FC28
:1034B0000028C4D14FF400717448FEF78EFC002838
:1034C000BDD1012070490870B4E08048007801281F
:1034D00008D100207D4908707D480078401C7C4957
:1034E0000870A7E07A480078C8B96948427A79A19B
:1034F00001A800F023FD01A90020FFF73DFB64486F
:1035000009307749086000E095E00120FFF794F862
:103510000020744908706320734908708AE06C4881
:103520000078012817D15A48C27970A101A800F08B
:1035300005FD01A90020FFF71FFB5548C01D684984
:1035400008600120FFF778F80020664908700C2019
:10355000654908706EE05E48007802281BD14C482F
:10356000827965A101A800F0E9FC01A90020FFF71C
:1035700003FB4748801D5A4908600120FFF75CF8AB
:10358000002058490870424AD179507A01F056FB20
:10359000554908704EE04E480078032817D13C4842
:1035A000027958A101A800F0C9FC01A90020FFF789
:1035B000E3FA3748001D4A4908600120FFF73CF84C
:1035C00000204849087017204749087032E04048F9
:1035D0000078042817D12E4842784DA101A800F0A8
:1035E000ADFC01A90020FFF7C7FA2948401C3C495F
:1035F00008600120FFF720F800203A4908703B20BE
:103600003949087016E000201F49087030490870D9
:103610002E4908700120134908701D4B9A79D979F9
:10362000587A01F09DF91A4948710020087008463F
:10363000FEF7E0F80AE0FF2C04D138A10020FFF7E4
:103640009BFA03E038A10020FFF796FA00BFBCE622
:1036500036000020380000202020202020202020BC
:10366000000000003700002054494D4500000000D4
:103670004441544500000000444F570054494D4513
:1036800053455400404B4C0039000020000C0140D1
:10369000EA000020253032643A253032643A253081
:1036A00032640000253032642D253032642D2530FF
:1036B000326400008000002025640D0A0000000034
:1036C0002B2D544F20534554000000003A00002099
:1036D0009C000020594541523A25303264200000B8
:1036E0003C00002040000020410000204D4F4E547F
:1036F000483A253032640000444154453A2530327E
:1037000064200000484F55523A25303264200000B2
:103710004D494E3A2530326420200000493243455D
:1037200052524F520000000044533332333145525D
:103730000000000021B1028842F08002028004E013
:1037400002884FF67F731A400280704721B10288C9
:1037500042F00102028004E002884FF6FE731A4034
:10376000028070470EB50121C802FFF737F91F48E4
:1037700000F050F81D4800F041F96020ADF800005D
:103780000020ADF80600ADF80200E520ADF8040019
:103790006946164800F0D2F900211448FFF7CAFF25
:1037A00001211248FFF7D2FF01210220FFF7F6F8AE
:1037B0000F4800F02FF80E4800F020F93020ADF847
:1037C00000000020ADF80600ADF802003120ADF891
:1037D00004006946064800F0B1F900210448FFF7EB
:1037E000A9FF01210248FFF7B1FF0EBD002C0140E7
:1037F0000004004031B1B0F8442042F40042A0F887
:10380000442005E0B0F84420C2F30E02A0F84420A2
:103810007047000010B504466848844208D1012171
:10382000C014FFF7EBF80021E014FFF7E7F8C4E05D
:10383000B4F1804F08D101210846FFF7BFF80021FD
:103840000120FFF7BBF8B8E05D48844208D10121B0
:103850000220FFF7B3F800210220FFF7AFF8ACE039
:103860005848844208D101210420FFF7A7F800211D
:103870000420FFF7A3F8A0E05348844208D10121B7
:103880000820FFF79BF800210820FFF797F894E045
:103890004E48844208D101211020FFF78FF8002103
:1038A0001020FFF78BF888E04948844208D10121B5
:1038B0002020FFF783F800212020FFF77FF87CE02D
:1038C0004448844208D101214014FFF797F80021B1
:1038D0006014FFF793F870E03F48844209D101215A
:1038E000C804FFF78BF800214FF40020FFF786F89B
:1038F00063E03A48844209D101210805FFF77EF8C8
:1039000000214FF48010FFF779F856E034488442E4
:1039100009D101214805FFF771F800214FF400108B
:10392000FFF76CF849E02F48844208D1012140207C
:10393000FFF744F800214020FFF740F83DE02A4817
:10394000844208D101218020FFF738F8002180202F
:10395000FFF734F831E02548844208D10121801571
:10396000FFF72CF80021A015FFF728F825E02048E4
:10397000844209D101210804FFF740F800214FF4E7
:103980008030FFF73BF818E01A48844209D1012142
:103990004804FFF733F800214FF40030FFF72EF80A
:1039A0000BE01548844208D101218804FFF726F86E
:1039B00000214FF48020FFF721F810BD002C0140BA
:1039C0000004004000080040000C004000100040CF
:1039D0000014004000340140004C01400050014000
:1039E0000054014000180040001C0040002000402E
:1039F00000400140004401400048014001894FF669
:103A0000F87211400181704770B500240022002334
:103A1000058C4FF6EF7635400584028C8388048B45
:103A200048F6FF752C404FF6FF452C400D884FF6A9
:103A3000FF7606EA05252C434FF6DF752A400D89EF
:103A400006EA05152A434D8806EA05152A43154D51
:103A5000A84202D0144DA8421DD14FF67F752A40CE
:103A60004D894FF6FF7606EA05152A434FF6BF75D6
:103A70002A408D8806EA05152A434FF6FF352B406C
:103A80004FF2FF752B408D8906EA85052B43CD89C2
:103A900006EA85052B4383800483CD88058702844D
:103AA00070BD0000002C01400034014070B50022C0
:103AB00000230024058C4EF6FF7635400584038CE8
:103AC0008488828B48F6FF752A404FF6FF452A40CE
:103AD0000D884FF6FF7606EA05252A434DF6FF7559
:103AE0002B400D8906EA05352B434D8806EA05353E
:103AF0002B430B4DA84202D00A4DA84208D14BF6E9
:103B0000FF752C408D894FF6FF7606EA85152C430C
:103B100084808283CD88A0F84050038470BD00006B
:103B2000002C01400034014000210180418081804F
:103B3000C180018141818181C18170470022028859
:103B40001D4B98420ED01D4B98420BD0B0F1804FC8
:103B500008D01B4B984205D01A4B984202D01A4B02
:103B6000984204D14FF68F731A404B881A43174B73
:103B7000984207D0164B984204D04FF6FF431A40A4
:103B8000CB881A4302808B8883850B8803850A4B78
:103B900098420BD0094B984208D00E4B984205D062
:103BA0000D4B984202D00D4B984201D10B7A0386FF
:103BB0000123838270470000002C01400034014043
:103BC0000004004000080040000C004000100040CD
:103BD0000014004000400140004401400048014002
:103BE00000B587B0012144F20400FEF7F7FE244837
:103BF00000F06CF84FF40070ADF8180003208DF859
:103C00001A0018208DF81B0006A91E48FEF75AF866
:103C10004FF48060ADF8180004208DF81B0006A951
:103C20001848FEF74FF825208DF8040003208DF882
:103C300005008DF8060001208DF8070001A8FEF7A9
:103C4000D7FD4FF4165002900020ADF80C00ADF8EF
:103C50000E00ADF81000ADF814000C20ADF8120005
:103C600002A9074800F0B2F8012240F225510448A9
:103C700000F087F80121024800F01CF807B000BDF1
:103C8000003801400008014010B504460BE000BFB9
:103C90004021074800F068F80028F9D0217804484E
:103CA00000F000F9641C20780028F0D110BD00005D
:103CB0000038014021B1828942F40052828104E03F
:103CC00082894DF6FF731A408281704710B5044611
:103CD0002048844209D101218803FEF78FFE00218C
:103CE0004FF48040FEF78AFE32E01B48844209D13F
:103CF00001214804FEF762FE00214FF40030FEF778
:103D00005DFE25E01548844209D101218804FEF7B3
:103D100055FE00214FF48020FEF750FE18E01048B9
:103D2000844209D10121C804FEF748FE00214FF466
:103D30000020FEF743FE0BE00A48844208D101212F
:103D40000805FEF73BFE00214FF48010FEF736FE1B
:103D500010BD000000380140004400400048004011
:103D6000004C00400050004002460020B1F5007FAA
:103D700000D100BF13880B400BB1012000E00020F0
:103D80007047F0B50346002400260025002040F6C9
:103D90006A17B94200D100BF1846C1F3421401F0BE
:103DA0001F06012707FA06F5012C01D10C3004E0AB
:103DB000022C01D1103000E014301AB107682F43F3
:103DC000076002E00768AF430760F0BD2DE9F047E8
:103DD00086B005460E460024A24600BFA146002735
:103DE000B08900B100BF2F462C8A4CF6FF7004400A
:103DF000F08804432C82AC894EF6F3100440B0885E
:103E000031890843718908430443AC81AC8A4FF679
:103E1000FF400440B0890443AC8201A8FEF708FECD
:103E20001F48874202D1DDF810A001E0DDF80CA0A8
:103E3000A88900F4004040B10AEBCA0000EB0A1068
:103E400031684900B0FBF1F807E00AEBCA0000EB6B
:103E50000A1031688900B0FBF1F86420B8FBF0F07B
:103E600004012009642101FB1089A88900F40040A5
:103E700040B1322000EBC900B0FBF1F000F00700C8
:103E8000044308E0322000EB09106421B0FBF1F09C
:103E900000F00F0004432C8106B0BDE8F08700005D
:103EA00000380140C1F308028280704700BFFEE77E
:103EB00008B501210820FEF791FD4FF47040ADF8E0
:103EC000000003208DF8020010208DF803006946E1
:103ED0000148FDF7F7FE08BD000C014010B54FF496
:103EE00000411548FDF782FFE02001F01FFC28206B
:103EF000FDF7D9FC072001F019FC4FF400410E48F2
:103F0000FDF776FF2820FDF7CEFC4FF400410A486C
:103F1000FDF76CFFE42001F009FC2820FDF7C3FC4D
:103F2000FF2001F003FC4FF400410348FDF760FF60
:103F30002820FDF7B8FC10BD000C01400FB4084B61
:103F400010B504A902AA039800F06EF9044602A96C
:103F5000002000F000FD204610BC5DF814FB0000BE
:103F600057490008490050EAC12018BF04204A0DF3
:103F700018BF40F0010040F2FF72B2EB515F08BF82
:103F800040F00200012808BF052070472DE9F041EC
:103F90004F1E00EBC7010446D1E9000115461E463D
:103FA00037F006020DD02A463346FCF796F97F1EFD
:103FB00004EBC703D3E90023FCF7E8F837F0060267
:103FC000F1D1022F25D0042F13D0062F18BFBDE842
:103FD000F0812A463346FCF780F9D4E90A23FCF73E
:103FE000D5F82A463346FCF778F9D4E90823FCF7DC
:103FF000CDF82A463346FCF770F9D4E90623FCF7DE
:10400000C5F82A463346FCF768F9D4E90423FCF7DF
:10401000BDF82A463346FCF760F9D4E90223FCF7E1
:10402000B5F82A463346FCF758F9D4E90023BDE831
:10403000F041FCF7ABB800000022134610460149DE
:10404000FCF7BDB90000F03FFCF7A0B80022134612
:1040500010461146FCF7B3B940F2013200204FF090
:10406000E041FCF75CBB0000024A00201107FCF7AE
:1040700056BB000001FDFFFF02E008C8121F08C187
:10408000002AFAD170477047002001E001C1121FD9
:10409000002AFBD17047000001490860704700000A
:1040A000C80000202DE9FF5F82B00021DDE9043067
:1040B000020DDDF840B0034318D044F61050A2F2D0
:1040C000FF3242431514119801281FD0A5EB0B00B5
:1040D000401C5FEA000A4FF000064E4FDFF83891AF
:1040E000B046504615D5CAF1000413E011980124DA
:1040F0004AA3012801D16FEA0B010298119AC0E985
:104100000031C0E9024206B0BDE8F09FCBF10000EB
:10411000DFE704460021404A491842EB0450CDE94C
:10412000001012E0E00707D032463B4640464946C1
:10413000FCF7D3F88046894632463B46104619467E
:10414000FCF7CBF806460F466410002CEAD1DDE9F7
:104150000401DDE90023BAF1000F06DAFCF7BDF82F
:1041600042464B46FCF7B9F805E0FCF728F9424611
:104170004B46FCF724F904460E460022284BFCF778
:10418000FDFA03D84FF0FF30014607E00022254B2F
:1041900020463146FBF7FAFFFCF7D8FA102409E075
:1041A000002C0ADB0A220023FCF7D3F9039B3032F0
:1041B0001A55641E50EA0102F2D1641C039AC4F13C
:1041C00011031444119A012A03D0012208430DD18E
:1041D0000AE0084304D000204FF0110B119072E761
:1041E000A3EB0B056D1E0DE05B4504DD4FF00002F7
:1041F00005F1010504E003DA4FF00002A5F1010525
:10420000002AECD002981199C0E90231C0E90045BA
:1042100079E70000000014400000F03F300000008B
:104220000000F0430000E03F2DE9FF4F95B09B46B2
:104230008946064600250FE2252877D10024274627
:10424000F84A0121059400E0044316F8013F203BA1
:1042500001FA03F01042F7D130782A2811D06FF01C
:104260002F033078A0F13002092A16D8059A44F0BD
:10427000020402EB820203EB42021044761C05901A
:10428000EFE759F8042B0592002A03DA504244F470
:104290000054059044F00204761C30782E2816D184
:1042A00016F8010F44F004042A280DD06FF02F02F5
:1042B0003078A0F13003092B09D807EB870302EB14
:1042C0004303C718761CF3E759F8047B761C307853
:1042D0006C280FD006DC4C2817D068280DD06A282F
:1042E00014D104E0742810D07A280FD10DE044F4E2
:1042F00000140AE044F4801401E044F4401472789D
:10430000824202D104F58014761C761C307866282F
:104310000BD013DC582877D009DC002875D045284D
:10432000F6D04628F4D047281AD19DE118E063283A
:1043300035D0642879D0652812D195E1702873D0E2
:1043400008DC6728F1D069286FD06E280DD06F285F
:1043500006D1B5E073282CD0752875D0782874D094
:104360005A46179990476D1C75E1C4F30250022814
:1043700009D003280DD0D9F8001004280DD00D6005
:1043800009F1040967E1D9F80010EA17C1E9005200
:10439000F6E7D9F800100D80F2E70D70F0E719F894
:1043A000041B8DF8001000208DF80100EA46012062
:1043B00003E059F804AB4FF0FF3061074FF0000104
:1043C00002D40DE008F101018846B9420FDA8045B8
:1043D000F8DB1AF808100029F4D108E008F101010F
:1043E00088468142FADB1AF808100029F6D10598B0
:1043F0005B46A0EB080721463846179A00F094FA6E
:10440000284400EB080507E04DE029E10DE01AF82B
:10441000010B5A4617999047B8F10108F7D25B464D
:1044200021463846179A13E142E00A220092C4F36B
:1044300002524FF0000A022A08D059F804CB032A8E
:104440004FEAEC710AD00DE029E02AE009F10701FA
:1044500021F00702F2E802C1914609E00FFA8CFC54
:104460004FEAEC71042A03D14FFA8CFC4FEAEC714D
:10447000002907DA0A460021DCF1000C61EB020199
:104480002D2202E0220504D52B228DF804200122E2
:1044900003E0E20701D02022F7E7904659E00A2125
:1044A00002E010220DE010214FF0000A00910BE015
:1044B00010224FF0000A44F004040827009203E0A1
:1044C00008224FF0000A0092C4F30252022A05D0DB
:1044D00059F804CB0021032A08D009E009F10701AB
:1044E00021F00702F2E802C1914605E01FFA8CFCB8
:1044F000042A01D10CF0FF0C4FF00008220728D548
:10450000702806D0009B83F0100353EA0A0305D0FD
:104510000EE040228DF80420012208E05CEA01024E
:1045200006D030228DF804208DF805000222904636
:10453000009B83F0080353EA0A030AD15CEA0102F4
:1045400001D1620705D530228DF804204FF0010813
:104550007F1E582804D034A003900EA802900DE0CE
:1045600036A0F9E753466046009AFBF7F2FF84460F
:104570000398825C0298401E029002705CEA01007F
:10458000F0D1029806A9081A00F1200A600702D5A6
:1045900024F4803400E00127574502DDA7EB0A0030
:1045A00000E0002000EB0A01009005984144401A09
:1045B0000590E00306D45B462146179A059800F063
:1045C000B3F90544002706E001A85A46C05D1799D3
:1045D00090476D1C7F1C4745F6DBE0030CD55B461E
:1045E0002146179A059800F09FF9054404E0302011
:1045F0005A46179990476D1C0099481E0090002953
:10460000F5DC08E0029802995A460078491C0291AC
:10461000179990476D1CBAF10001AAF1010AF1DC6B
:1046200065E1000009280100303132333435363776
:1046300038396162636465660000000030313233EE
:10464000343536373839414243444546000000008E
:1046500000F058F90544761C307800287FF4ECAD62
:1046600019B02846BDE8F08F620700D4062709F18B
:10467000070222F0070CFCE80223E14603F00048A1
:104680005FEA080C02D00FF2702C0DE05FEA045CC8
:1046900002D50FF2682C07E05FEAC47C02D00FF26B
:1046A000602C01E0AFF2700C4FF0FF3823F00043B4
:1046B000CDF850C065280CD006DC452809D0462826
:1046C0001DD047283DD13DE0662818D067287ED10F
:1046D00038E00021112F01DB112000E0781CCDE92A
:1046E000000106A90EA8FFF7DDFCDDE90F010E9A17
:1046F00003910021009207F1010A04914DE04FF06F
:1047000000400097CDE9011006A90EA8FFF7CAFCEA
:10471000DDE90F0203920E9B11990022DDF80CA037
:104720000093049211B9791C00EB010AB7EB0A005F
:1047300004D4C0F1FF3007F1010A0490AAEB07008E
:10474000019044E0012F00DA01270021112F01DD43
:10475000112000E03846CDE9000106A90EA8FFF7B8
:10476000A1FCDDE90F010E9A039100210491009252
:10477000BA4621070CD40399514500DA8A46BAF1AA
:10478000010F05DD009AAAF10101515C302908D022
:10479000B84202DA10F1040F06DA0121CDE9011066
:1047A00015E0AAF10101E9E7002805DC04990144BC
:1047B0000491AAEB000102E0411C514500DD8A464C
:1047C0000499401A401C01904FF0004002902007CD
:1047D00004D40198504501DBCDF8048000208DF809
:1047E0004F0002980DF14F07B0F1004F25D02B205C
:1047F0000E9002984FF0020800280CDA4042029016
:104800002D200E9007E00A210298FBF78CFE303134
:10481000029007F8011DB8F10001A8F10108F2DCCF
:1048200002980028EFD1791E0E980870307800F0B9
:10483000200040F0450007F8020D12A8C01B00F14F
:1048400007081498007800B1012000EB0A010198D4
:1048500001EBE07105984144401A401E0590E003C9
:1048600006D45B462146179A059800F05DF805448A
:104870001498007818B15A46179990476D1CE003B8
:1048800024D55B462146179A059800F04DF805445B
:104890001CE00498002807DBDDE90301884203DD02
:1048A0000098405C179901E0179930205A469047CC
:1048B000049805F10105401C04900198401E0190E8
:1048C00004D12E205A46179990476D1CBAF1000169
:1048D000AAF1010ADDDC05E017F8010B5A46179929
:1048E00090476D1CB8F10001A8F10108F4DC5B46AB
:1048F0002146179A0598ABE62D0000002B0000001A
:10490000200000002DE9F041044600251E46174610
:10491000880404D405E039462020B0476D1C641E8D
:10492000F9D52846BDE8F0812DE9F041044600257F
:104930001E469046C80301D5302700E02027880492
:1049400004D505E041463846B0476D1C641EF9D5D4
:104950002846BDE8F0810A68531C0B601070704750
:10496000F0B504460B4604F5FA61012B01D0022B89
:1049700003D103F10C00C3B2491E5E1C06EB4606D0
:10498000052796FBF7F6022707FB03273E440E4454
:104990000846CF1701EB977706EBA706642791FB34
:1049A000F7F7F61B4FF4C87791FBF7F73E4407275C
:1049B00096FBF7FC07FB1C66F5B2681CC5B22846DF
:1049C000F0BD000088B01C227E4901A8FBF7CCFB9B
:1049D000FEF7ECFB0620FEF7EFFAFDF72FF9FFF7E5
:1049E00067FAFDF783FEFDF73CFEFFF7F9F8FDF7E8
:1049F00097FAFBF77DFFFEF7B5FE80217248FDF7C1
:104A0000F5F94FF400617048FDF7F0F94FF480516B
:104A10006E48FDF7EDF96E48FCF740FF4FF480510A
:104A20006A48FDF7E3F91420FCF738FF4FF4805192
:104A30006648FDF7DDF96748FCF730FFFFF74EFAEF
:104A400042F21070FCF72AFFFCF77EFE62A1002004
:104A5000FEF792F86348FCF721FF63A10020FEF700
:104A60008BF86048FCF71AFF0120FDF7E5FD00F028
:104A700003FE0020FCF7CAFB7D20FEF743F840B19F
:104A80005CA10020FEF778F8FDF7C8FF5548FCF759
:104A900005FFFEF7D9FA5A480088A021B1EB202F74
:104AA0001CD058A10020FEF767F84FF4204054496D
:104AB0000880012056490870C82056490870002017
:104AC000554908808870C870544908808870C8703B
:104AD000534908808870C870FEF70CFBFEF7B4FAE3
:104AE0005048FCF7DBFE4FF47A710620FDF76CFDB1
:104AF00066E0FDF783FD4FF400713448FDF76DF972
:104B000090B920213148FDF768F968B94648007826
:104B100018B100204449087002E0012042490870A1
:104B200041480078FDF7F8FD3F480078FDF7F4FDB7
:104B3000FCF7B6FAFEF708FCFEF768FBFDF790FEFF
:104B4000FEF74CF8FCF71CF8FBF7A4FE37480068AA
:104B500018B13648006832282ADD01203349086040
:104B60002B480078E0B132484088642190FBF1F096
:104B700000EB8000322101EB4000FF2803DDFF2025
:104B80002C49087010E02A484088642190FBF1F01D
:104B900000EB8000322101EB40002649087003E061
:104BA0001C4800782349087022480078FDF7C8FFA8
:104BB0001E480068401C1D4908601F48FCF76EFE37
:104BC00097E700008057000800080140000C0140F2
:104BD0008096980040420F002D48454C4C4F212DA7
:104BE00000000000404B4C0046572056312E30301C
:104BF00000000000465245424F4F54200000000084
:104C0000420000202D2D494E49542D2D000000005A
:104C100044000020450000205C00002060000020CF
:104C20006400002000093D004800002054000020DE
:104C3000300000204600002080841E0030B503466E
:104C40004FF4FA621A44022917D1D41702EB947474
:104C5000A410A2EB84042CB9642492FBF4F504FBA9
:104C6000152434B94FF4C87492FBF4F504FB1524F1
:104C70000CB91D2030BD1C20FCE701290BD00329F5
:104C800009D0052907D0072905D0082903D00A290A
:104C900001D00C2901D11F20ECE71E20EAE700001B
:104CA0002DE9F04D1D460C4698B0174621F0004105
:104CB00023F00043002814BF4FF0010C4FF0000C0C
:104CC0000CEB440CFE4A0CEB02064FEA620C664504
:104CD0002BD33E0018BF012606EB45061644F94AC1
:104CE000964222D3F84A53EA070C02D0944205D1E7
:104CF00048B918B000201146BDE8F08D002808BF63
:104D00004FF0000C01D04FF0010C0CEB440212F5F7
:104D1000001F0AD8002F14BF4FF0010C4FF0000CF9
:104D20000CEB450212F5001F07D918B03A462B4686
:104D30002146BDE8F04DFFF787B90022DFF88CA3CC
:104D4000002CB8BF534526DADFF884C36345A8BFFB
:104D5000022220DADFF870C39C451CDCDFF874C344
:104D60000CEB235CBCF1140F08DDCCF1340627FA00
:104D700006FC0CFA06F6BE420DD108E05FB9CCF194
:104D8000140623FA06FC0CFA06F69E4203D10CF038
:104D90000102C2F1020251EA000C19D1002D17DA0A
:104DA000002C18BF022A01D0012A07D00220FFF7E9
:104DB00073F918B0BDE8F04DFFF73EB90220FFF7D8
:104DC0006BF9FFF739F918B081F00041BDE8F08DBB
:104DD000B7F1000C6CD1534525D104F1804212F596
:104DE000801201BF00280020B74918B008BFBDE8F5
:104DF000F08DB548884207DC002DA1BF60462946EA
:104E000018B0BDE8F08D07E0281E05DA80F00041FB
:104E100018B06046BDE8F08DAF497944D1E9000192
:104E200018B0BDE8F08DDFF8A0C2634525D1002D94
:104E30001FDA19B1514512D1D8B909E0002840F064
:104E4000EC82A24A214618B062F31E01BDE8F08D43
:104E50000020214618B060F31E01BDE8F08D08DA8D
:104E600018B02346BDE8F04D024600206146FBF72E
:104E7000A6BA18B02146BDE8F08D514518DAB5F153
:104E8000804F0DD0A5F1005CBCF1FF5C10D1B4F1F6
:104E9000000C0DDB18B06146BDE8F04D00F020BC01
:104EA000234618B00246BDE8F04D1946FBF715BA87
:104EB000060024F0004C3BD1D9B1514533D1002C30
:104EC00006DD002DA1BF0020514618B0BDE8F08DD1
:104ED000002C01DD002D1BDB002C13DA002D11DB73
:104EE000012A4FF0000014BF78497C4918B0BDE892
:104EF000F08D022A18BF002C0AD0012A08D1002CFC
:104F000006DA0AE0002CB8BF002D11DA012A04D01D
:104F1000002018B00146BDE8F08D18B000204FF019
:104F20000041BDE8F08DA1F14050B0F17F601AD092
:104F3000012000EBE47050EA020421D0624C521EC2
:104F40004FF0000B104304BF4FF0000B644C65485A
:104F500083427CDD644A654893421FDD884217DB4B
:104F6000002D25DB37E0002C00DA4AB1022A0CBF05
:104F700001204FF0FF3018B0BDE8F04DFBF793BAB9
:104F80000120FFF789F818B0BDE8F04DFFF75EB8D3
:104F90004D4A8A4202DC002D0ADC1CE0814202DA22
:104FA000002D18DA04E0484B994220DD002D12DD77
:104FB0000220FFF771F8FFF74FF805460E46002272
:104FC000534658462146FBF788F918B066F31E0190
:104FD0002846BDE8F08D0220FFF75EF8FFF744F8A1
:104FE0000A46214618B062F31E01BDE8F08D00228A
:104FF00030466146FBF76BF980460E466FF00102C2
:10500000FBF78DFB4FF05532394BFBF763F9424606
:105010003346FBF762F90022364BFBF75BF9824619
:1050200042463346049110461946FBF756F952465C
:10503000049BFBF752F98A4600904FF0C0422E4B7A
:1050400040463146FBF749F92C4A2B4B00E027E05C
:10505000CDE9060151460098FBF73FF982460191E0
:10506000274A284B40463146FBF737F95246019B09
:10507000FBF72DF982460B4602460591DDE9060154
:10508000FBF784F8DDE90623002688463046FBF767
:105090001EF95246059BFBF71DF9024600F07EB94A
:1050A0000020B1F5801F07DA352230466146FBF754
:1050B00036FB06466FF0340000EB215024E0000080
:1050C000FFFF1F00FFFF0F000000F03F0000F07F18
:1050D0000000404301FCFFFF0A0A00000000F0FF4F
:1050E0000000F0BF0000E0410000F043FFFFEF3F91
:1050F0005555D53F0000E03F4715F73FFE822B6531
:1051000044DF5DF80BAE543EA0F2FF300190C1F3D6
:10511000130040F07F6141F040510291FE49884206
:10512000D8BF002004DDFD498142C8BF012001DD58
:105130000D9008E000200D900198401C019002980D
:10514000A0F5801002900299F54878440B910D99D2
:1051500000EBC100D0E900230F9330460A920B996F
:10516000FBF7B5F8CDE90601DDE90A2130460F9BD2
:10517000FBF70CF802460B460020EA49FBF71FF943
:10518000059102460B460090DDE90601FBF7A5F804
:105190001490E5488A464FF0000878440299006868
:1051A00012904FF0005040EA61010D980F9B01EB07
:1051B000804000F5002109910A9A1298FBF787F8C0
:1051C00032460B9BFBF786F842465346FBF785F8C1
:1051D0000646029140465146099B129AFBF77DF81C
:1051E000DDE90623FBF776F83246029BFBF76FF802
:1051F000059B009AFBF771F80091149A04905346AE
:1052000010461946FBF769F806460246C7480B46A2
:10521000029106217844FEF7B9FECDE90510029B04
:10522000324610461946FBF758F8DDE90532FBF720
:1052300054F805910646534640461946149AFAF723
:10524000A5FF009B049AFBF748F83246059BFAF746
:105250009DFFCDE905104246534610461946FBF71F
:105260003CF80022B24B02910A90FAF78FFFDDE979
:105270000532FAF78BFF0E464246AD4B4046FBF730
:1052800026F8029B0A9AFBF722F8DDE90532FBF7C4
:1052900021F8424602910A90334610465146FBF7E8
:1052A0001CF8CDE906015346149A02990A98FBF7B7
:1052B00014F88A4602903346424600990498FBF758
:1052C0000CF85346029AFAF761FF82460B460246F3
:1052D0000591DDE90601FAF759FFDDE90623002013
:1052E00088460646FAF7F3FF5246059BFAF7F2FFA7
:1052F000824609914FF060428E4B30464146FAF7A4
:10530000ECFF049006918C4A8A4B50460999FAF7B3
:10531000E4FF82460291894A894B30464146FAF7BA
:10532000DCFF5246029BFAF731FF864B7B440D9A15
:1053300003EBC203D3E90023FAF728FF0E9007918D
:105340000198FBF7B0F80591DDE9061382460E9A45
:105350000498FAF71BFF7C4A7A440D9B02EBC303C7
:10536000D3E9002300930292FAF710FF5246059BFF
:10537000FAF70CFF0026884652463046059BFAF79E
:10538000A6FF009B029AFAF7A2FF069B049AFAF77F
:105390009EFF079B0E9AFAF79DFF024600200B46E0
:1053A000029038462946FAF798FF824601912B462B
:1053B00038461946029AFAF78AFF32464346FAF708
:1053C0008CFF5246019BFAF7E1FE07468A463246B9
:1053D000434629460298FAF780FF05460E463A46AC
:1053E0005346FAF7D3FE594A8846914221DBA8EB8F
:1053F000020353EA000210D12A463346FAF767FF48
:10540000CDE90401524A534B38465146FAF7BEFEE5
:10541000DDE90423FBF7B2F921D20220FEF73CFEBE
:10542000FEF71AFE0A46214618B062F31E01BDE8D7
:10543000F08D494B28F000429A4210D3474A08EBBE
:10544000020353EA00027FF4C6AD2A463346FAF758
:105450003EFF3A465346FBF791F97FF6BCAD00227A
:10546000019228F000403E493E4A01EB2051824221
:1054700023DA481C4FF4801121FA00F040443A4AE4
:10548000C0F30A517A44394BA1F2FF31CB4020EAF4
:105490000303C0F3130040F48010C1F11401C840AD
:1054A00012680190B8F1000FBCBF4042019028463D
:1054B0003146FAF70CFF05460E462A463346384673
:1054C0005146FAF763FE4FF000084246284B40462B
:1054D0000591FAF702FFCDE90601264A264B404620
:1054E0000599FAF7FAFE009102902A4633464046A3
:1054F0000599FAF7ECFE3A465346FAF7EBFE1F4AD7
:105500001F4BFAF7EAFE009B029AFAF73FFE0746A6
:10551000884602460B4635E08E9803007AB60B00AB
:10552000520600000000F03F8A060000B8050000A7
:105530000000084009C7EE3FFD033ADCF5015B14AB
:10554000E02F3EBE90040000540400000000904094
:10555000FE822B654715973C00CC904000346F3F8E
:1055600001FCFFFF0000E03FA0030000FFFF0F0071
:10557000432EE63F396CA80C615C20BEEF39FAFE81
:10558000422EE63FDDE90601FAF700FEDDE90623DB
:1055900005460E46FAF79BFE3A464346FAF79AFE50
:1055A0000F462A463346009010461946FAF795FEF4
:1055B000824602462E4888460B4605217844FEF76F
:1055C000E5FC52464346FAF788FE2A463346FAF788
:1055D00081FE80468A463B4628463146009AFAF7C5
:1055E0007CFE3B46009AFAF7D1FD0691009000221E
:1055F0004FF0804340465146FAF769FE0F460C9043
:105600004246534628463146FAF767FE3B460C9A17
:10561000FAF7D5FE069B009AFAF759FE2A4633465A
:10562000FAF755FE0022134BFAF754FE054601988F
:105630000E4601EB00510815002810DC28463146C3
:10564000019AFBF76CF8FEF78DFC042808BFFEF703
:105650000BFD28463146019AFBF761F805460B46DB
:1056600018B02A4658462146BDE8F04DFAF735BE37
:10567000400200000000F03F1FB56846FEF754FAF4
:105680006020ADF800007220ADF806000020ADF8F3
:1056900008000120ADF8020069460F48FEF706FA3F
:1056A00000210D48FEF7A6F86846FEF73DFA602097
:1056B000ADF800000E20ADF806000020ADF808009F
:1056C0000120ADF8020069460448FEF79DF900216B
:1056D0000248FEF78FF81FBD002C01400004004077
:1056E0002DE9F04106460F46FBF782F8041E0D46F1
:1056F00018BF0120284320F00040C0F17F6000F176
:10570000E040C00F0ED0301C18BF0120384320F0FD
:105710000040C0F17F6000F1E040C00F04BF0120F5
:10572000FEF7BAFC20462946BDE8F08170B5044674
:10573000002520E04FF400511048FCF757FB04F01F
:10574000010028B14FF480410C48FCF751FB04E004
:105750004FF480410948FCF749FB2820FCF7A3F8E7
:1057600064104FF400510548FCF742FB2820FCF779
:105770009AF8681CC5B2082DDCDB70BD000C014036
:1057800060580008545800086C5800083058000849
:105790003C580008485800087858000800000000ED
:1057A000000000000000F03F000000000000F83F93
:1057B00000000000000000000000004003B8E23FCD
:1057C000000000000000000006D0CF43EBFD4C3E7F
:1057D000033333333333E33FFFAB6FDBB66DDB3F74
:1057E0004D268F515555D53F01411DA96074D13FBC
:1057F00065DBC9934A86CD3FEF4E454A287ECA3FB6
:105800003E5555555555C53F93BDBE166CC166BF37
:105810002CDE25AF6A56113FF16BD2C541BDBBBE30
:10582000D0A4BE726937663E000000000000000090
:105830005765642020202020000000005468757205
:105840002020202000000000467269646179202039
:10585000000000004D6F6E646179202000000000A0
:1058600053756E64617920200000000054756573E3
:10587000646179200000000053617475726461797D
:10588000000000005765646E6573646100000000ED
:1058900054687572736461790000000057454400D4
:1058A00054554500465249004D4F4E0053554E0049
:1058B0005341540054485500D858000800000020B7
:1058C000CC00000078400008A4590008CC0000205B
:1058D000BC04000088400008000000000000000038
:1058E00000000000000000000000000000000000B8
:1058F00000000000000000000000000000000000A8
:105900000000000000000000000000000000010195
:105910000000000000000000000000000000000087
:105920000000000000000000000000000000000077
:105930000000000000000000000000000000000067
:105940000000000001020304010203040607080925
:105950000204060800000000545800086C580008B3
:1059600084580008905800084858000878580008E3
:105970006058000800000000000000000000000067
:1059800000000000A8580008A05800089C58000813
:10599000B4580008A4580008B0580008AC580008D3
:0459A0000000000003
:0400000508000131BD
:00000001FF
